:020000040000FA
:100000000C9434000C9451000C9451000C94510049
:100010000C9451000C9451000C9451000C9451001C
:100020000C9451000C9451000C9451000C9451000C
:100030000C9451000C9451000C9451000C945100FC
:100040000C9490000C9451000C9451000C945100AD
:100050000C9451000C9451000C9451000C945100DC
:100060000C9451000C94510011241FBECFEFD8E026
:10007000DEBFCDBF11E0A0E0B1E0EEEFF4E002C0E2
:1000800005900D92A631B107D9F721E0A6E1B1E0C4
:1000900001C01D92A932B207E1F70E94DA000C9468
:1000A0007D020C9400003FB7F89480911701909165
:1000B0001801A0911901B0911A0126B5A89B05C09D
:1000C0002F3F19F00196A11DB11D3FBFBA2FA92FD7
:1000D000982F8827BC01CD01620F711D811D911DD4
:1000E00042E0660F771F881F991F4A95D1F7089540
:1000F000CF92DF92EF92FF920E9453006B017C013E
:100100000E9453006C197D098E099F09683E734057
:1001100081059105A8F3FF90EF90DF90CF900895AF
:100120001F920F920FB60F9211242F933F938F932C
:100130009F93AF93BF9380911B0190911C01A0915D
:100140001D01B0911E013091160123E0230F2D37C0
:1001500058F50196A11DB11D2093160180931B0136
:1001600090931C01A0931D01B0931E018091170173
:1001700090911801A0911901B0911A010196A11D49
:10018000B11D8093170190931801A0931901B093AA
:100190001A01BF91AF919F918F913F912F910F9035
:1001A0000FBE0F901F90189526E8230F0296A11DF1
:1001B000B11DD2CF789484B5826084BD84B581604E
:1001C00084BD85B5826085BD85B5816085BD809122
:1001D0006E00816080936E0010928100809181009A
:1001E0008260809381008091810081608093810092
:1001F000809180008160809380008091B100846054
:100200008093B1008091B00081608093B0008091B4
:100210007A00846080937A0080917A008260809373
:100220007A0080917A00816080937A0080917A00D0
:10023000806880937A001092C1008FEF8AB98FE3B3
:1002400084B985B9EE24E394F12CCAE0D0E090E0C3
:10025000C92E90E0D92E80912701909128018A30F3
:1002600091054CF4E0912501F0912601E65FFE4FE7
:100270002081209305019C012A5031092A3531053E
:1002800090F4E0912301F0912401E65FFE4F20817C
:1002900020930501E0912501F0912601E65FFE4FD4
:1002A0002081209306019C012456310924383340D3
:1002B000D8F4E0912101F0912201E65FFE4F208108
:1002C00020930501E0912301F0912401E65FFE4FA8
:1002D000208120930601E0912501F0912601E65F3F
:1002E000FE4F208120930701885E9340883293421D
:1002F00020F5E0911F01F0912001E65FFE4F808123
:1003000080930501E0912101F0912201E65FFE4F0B
:10031000808180930601E0912301F0912401E65F42
:10032000FE4F808180930701E0912501F091260125
:10033000E65FFE4F80818093080110E000E08FB7F8
:10034000F89480901B0190901C01A0901D01B0902A
:100350001E018FBF0E947800712C612C2FB7F8947A
:1003600080911B0190911C01A0911D01B0911E0173
:100370002FBF88199909AA09BB0986399105A105DA
:10038000B10538F585B195B18095892B85B925B131
:10039000C701062C01C0880F0A94EAF780958223D2
:1003A00085B9C8018619970997FD03C08A30910560
:1003B00014F089E090E080509F4FFC0180818BB960
:1003C0000E947800FFEF6F1A7F0A23E062227724F1
:1003D000C5CF0F5F1F4F0D30110509F0B0CF8091D1
:1003E0002501909126010196909326018093250185
:1003F00020912701309128012F5F3F4F3093280132
:1004000020932701BE010E945502892BA1F410926E
:1004100026011092250120912301309124012F5FA4
:100420003F4FC901BE010E945502892B59F03093FC
:10043000240120932301C114D10409F40CCF0E949C
:10044000000009CF10922401109223012091210174
:10045000309122012F5F3F4FC901BE010E9455021A
:10046000892B29F03093220120932101E4CF1092AF
:1004700022011092210120911F01309120012F5F54
:100480003F4FC901BE010E945502892B29F03093CC
:10049000200120931F01CFCF1092200110921F0145
:1004A0001092280110922701C6CF97FB072E16F451
:1004B000009407D077FD09D00E94690207FC05D09F
:1004C0003EF4909581959F4F0895709561957F4F6B
:1004D0000895AA1BBB1B51E107C0AA1FBB1FA6178B
:1004E000B70710F0A61BB70B881F991F5A95A9F7DD
:1004F00080959095BC01CD010895F894FFCF767951
:1005000038385C00000000003F065B4F666D7D07D9
:040510007F6F0000F9
:107E0000112484B714BE81FFF0D085E080938100F7
:107E100082E08093C00088E18093C10086E0809377
:107E2000C20080E18093C4008EE0C9D0259A86E02C
:107E300020E33CEF91E0309385002093840096BBD3
:107E4000B09BFECF1D9AA8958150A9F7CC24DD24C4
:107E500088248394B5E0AB2EA1E19A2EF3E0BF2EE7
:107E6000A2D0813461F49FD0082FAFD0023811F036
:107E7000013811F484E001C083E08DD089C08234E0
:107E800011F484E103C0853419F485E0A6D080C0E4
:107E9000853579F488D0E82EFF2485D0082F10E0AE
:107EA000102F00270E291F29000F111F8ED06801E7
:107EB0006FC0863521F484E090D080E0DECF843638
:107EC00009F040C070D06FD0082F6DD080E0C81688
:107ED00080E7D80618F4F601B7BEE895C0E0D1E017
:107EE00062D089930C17E1F7F0E0CF16F0E7DF06D8
:107EF00018F0F601B7BEE89568D007B600FCFDCFD4
:107F0000A601A0E0B1E02C9130E011968C91119780
:107F100090E0982F8827822B932B1296FA010C0160
:107F200087BEE89511244E5F5F4FF1E0A038BF0790
:107F300051F7F601A7BEE89507B600FCFDCF97BE46
:107F4000E89526C08437B1F42ED02DD0F82E2BD052
:107F50003CD0F601EF2C8F010F5F1F4F84911BD097
:107F6000EA94F801C1F70894C11CD11CFA94CF0C13
:107F7000D11C0EC0853739F428D08EE10CD085E9AC
:107F80000AD08FE07ACF813511F488E018D01DD067
:107F900080E101D065CF982F8091C00085FFFCCF94
:107FA0009093C60008958091C00087FFFCCF809118
:107FB000C00084FD01C0A8958091C6000895E0E648
:107FC000F0E098E1908380830895EDDF803219F02E
:107FD00088E0F5DFFFCF84E1DECF1F93182FE3DFCA
:107FE0001150E9F7F2DF1F91089580E0E8DFEE27F6
:047FF000FF270994CA
:027FFE00040479
:00000001FF
