:100000000C9434000C9451000C9451000C94510049
:100010000C9451000C9451000C9451000C9451001C
:100020000C9451000C9451000C9451000C9451000C
:100030000C9451000C9451000C9451000C945100FC
:100040000C9453000C9451000C9451000C945100EA
:100050000C9451000C9451000C9451000C945100DC
:100060000C9451000C94510011241FBECFEFD8E026
:10007000DEBFCDBF11E0A0E0B1E0E4EBF4E002C0F0
:1000800005900D92A830B107D9F721E0A8E0B1E0C2
:1000900001C01D92A131B207E1F70E949D000C94AE
:1000A00058020C9400001F920F920FB60F92112469
:1000B0002F933F938F939F93AF93BF9380910D01A5
:1000C00090910E01A0910F01B091100130910C019F
:1000D00023E0230F2D3758F50196A11DB11D209364
:1000E0000C0180930D0190930E01A0930F01B0932A
:1000F00010018091080190910901A0910A01B0912D
:100100000B010196A11DB11D809308019093090177
:10011000A0930A01B0930B01BF91AF919F918F9172
:100120003F912F910F900FBE0F901F90189526E8CA
:10013000230F0296A11DB11DD2CF789484B58260A1
:1001400084BD84B5816084BD85B5826085BD85B57B
:10015000816085BD80916E00816080936E001092F9
:100160008100809181008260809381008091810074
:100170008160809381008091800081608093800005
:100180008091B10084608093B1008091B000816063
:100190008093B00080917A00846080937A0080918F
:1001A0007A00826080937A0080917A0081608093E7
:1001B0007A0080917A00806880937A001092C10062
:1001C0008FEF8AB980EF8BB98FB7F89440910D010A
:1001D00050910E0160910F01709110018FBF2FB7E8
:1001E000F89480910D0190910E01A0910F01B091B2
:1001F00010012FBF841B950BA60BB70B80399140C4
:10020000A105B10560F388248394912CC0E0D0E06F
:1002100004E010E095E0E92EF12C26E0C22ED12C6E
:1002200037E0A32EB12C58994DC0809106019091D2
:100230000701019790930701809306019BB19401F8
:1002400001C0220F8A95EAF7892F822B8BB9209162
:100250000601309107012F5F3F4F8091040190917B
:1002600005012817390749F03BB1C40101C0880FC7
:100270002A95EAF7809583238BB98FB7F89440913C
:100280000D0150910E0160910F01709110018FBF0F
:100290002FB7F89480910D0190910E01A0910F015C
:1002A000B09110012FBF841B950BA60BB70B8039A3
:1002B0009140A105B10560F3209709F4B4CF0E94E5
:1002C0000000B1CF589B34C0599932C080910401CD
:1002D000909105019C012150310930930501209333
:1002E00004010297909307018093060158988BB1FF
:1002F00094010090040102C0220F331F0A94E2F718
:10030000822B8BB98BB194010090060102C0220FA1
:10031000331F0A94E2F7822B8BB9209104013091AC
:1003200005012F5F3F4F809102019091030199CF0A
:100330008BB18370B9F48BB1877009F059C01093F9
:10034000070100930601F0920501E0920401D092AA
:100350000301C0920201B0920101A09200018BB191
:1003600080958ACF5A99E7CF80910201909103013D
:100370009C01215031093093030120930201215047
:1003800031093093050120930401039790930701ED
:1003900080930601589859988BB1940100900201FE
:1003A00002C0220F331F0A94E2F7822B8BB98BB164
:1003B00094010090040102C0220F331F0A94E2F757
:1003C000822B8BB98BB194010090060102C0220FE1
:1003D000331F0A94E2F7822B8BB9209102013091EE
:1003E00003012F5F3F4F809100019091010139CFB0
:1003F0005B9BA5CF80910001909101019C01215050
:1004000031093093010120930001215031093093CB
:1004100003012093020121503109309305012093FB
:100420000401049790930701809306018BB1887FA4
:100430008BB98BB194010090000102C0220F331FD1
:100440000A94E2F7822B8BB98BB1940100900201E0
:1004500002C0220F331F0A94E2F7822B8BB98BB1B3
:1004600094010090040102C0220F331F0A94E2F7A6
:10047000822B8BB98BB194010090060102C0220F30
:10048000331F0A94E2F7822B8BB92091000130913F
:1004900001012730310509F4F0CE4BB12F5F3F4FFA
:1004A000C40101C0880F2A95EAF780958423E4CE21
:0404B000F894FFCFEE
:0804B40007000600050004002A
:00000001FF
