:100000000C9434000C9451000C9451000C94510049
:100010000C9451000C9451000C9451000C9451001C
:100020000C9451000C9451000C9451000C9451000C
:100030000C9451000C9451000C9451000C945100FC
:100040000C9490000C9451000C9451000C945100AD
:100050000C9451000C9451000C9451000C945100DC
:100060000C9451000C94510011241FBECFEFD8E026
:10007000DEBFCDBF11E0A0E0B1E0EAE7F3E002C0EF
:1000800005900D92A831B107D9F721E0A8E1B1E0C0
:1000900001C01D92A132B207E1F70E94DA000C9470
:1000A000BB010C9400003FB7F89480911901909126
:1000B0001A01A0911B01B0911C0126B5A89B05C097
:1000C0002F3F19F00196A11DB11D3FBFBA2FA92FD7
:1000D000982F8827BC01CD01620F711D811D911DD4
:1000E00042E0660F771F881F991F4A95D1F7089540
:1000F000CF92DF92EF92FF920E9453006B017C013E
:100100000E9453006C197D098E099F09683E734057
:1001100081059105A8F3FF90EF90DF90CF900895AF
:100120001F920F920FB60F9211242F933F938F932C
:100130009F93AF93BF9380911D0190911E01A09159
:100140001F01B09120013091180123E0230F2D37BA
:1001500058F50196A11DB11D2093180180931D0132
:1001600090931E01A0931F01B0932001809119016B
:1001700090911A01A0911B01B0911C010196A11D43
:10018000B11D8093190190931A01A0931B01B093A4
:100190001C01BF91AF919F918F913F912F910F9033
:1001A0000FBE0F901F90189526E8230F0296A11DF1
:1001B000B11DD2CF789484B5826084BD84B581604E
:1001C00084BD85B5826085BD85B5816085BD809122
:1001D0006E00816080936E0010928100809181009A
:1001E0008260809381008091810081608093810092
:1001F000809180008160809380008091B100846054
:100200008093B1008091B00081608093B0008091B4
:100210007A00846080937A0080917A008260809373
:100220007A0080917A00816080937A0080917A00D0
:10023000806880937A001092C1008FEF8AB98FE0B6
:1002400084B917B885B94FE0342E57E0F52E6BE02E
:10025000E62E10E000E03DE0D32E8FB7F8948090BA
:100260001D0190901E01A0901F01B09020018FBF32
:100270000E9478001C993FC024E6422E512C612C2C
:10028000712CD0E0C0E08EE0C82E2FB7F89480919A
:100290001D0190911E01A0911F01B09120012FBF5F
:1002A00088199909AA09BB0984159505A605B705FA
:1002B00008F053C083B135B885FD32C0C330D105D5
:1002C00009F5C5B8C8018C1B9D0B97FD03C086308E
:1002D000910514F085E090E030992EC0319B2CC040
:1002E0008E5E9E4FFC0180818BB90E947800219622
:1002F000C370DD27CACF94EF492E55245394612C47
:10030000712CBFCFC230D10511F4D5B8DBCFC130CD
:10031000D10511F4E5B8D6CF2097A1F6F5B8D2CF24
:10032000209779F2C130D10581F3C230D10591F324
:10033000C330D10599F3C6CF319902C0309907C0B7
:10034000319902C0309B06C08A5F9E4FCBCF845F3D
:100350009E4FC8CF80509F4FC5CF0F5F1F4F0A30B1
:10036000110509F07ACF80E090E0892B09F471CF74
:0A0370000E9400006ECFF894FFCF4A
:10037A00DCB8B8F9F600767938385C005C38387938
:08038A007600F6F9B8B8DC00BA
:00000001FF
